:100000000C945C000C94AB060C94D8060C94840001
:100010000C9484000C9484000C9484000C94840050
:100020000C9484000C9484000C9484000C94840040
:100030000C9484000C9479010C9484000C9484003A
:100040000C9405070C9484000C9489080C9484008B
:100050000C9484000C9484000C9484000C94840010
:100060000C9484000C948400000024272A000025AE
:10007000282B000023262904040404040404040299
:100080000202020202030303030303010204081035
:100090002040800102040810200102040810200002
:1000A0000000070002010000030406000000000039
:1000B000000000006A02120511241FBECFEFD4E039
:1000C000DEBFCDBF11E0A0E0B1E0EAE6F7E102C09B
:1000D00005900D92A233B107D9F712E0A2E3B1E087
:1000E00001C01D92A435B107E1F710E0C8EBD0E0E4
:1000F00004C02297FE010E94AF0BC43BD107C9F791
:100100000E940B050C94B30B0C940000FC01882793
:100110009927E89421912032E9F3293010F02E300C
:10012000C8F32B3241F02D3239F4689404C00E9498
:10013000D600820F911D219120532A30C0F31EF466
:10014000909581959F4F0895009731F4DA018D9134
:100150009C91009709F40EC0DC01FB013D912191B7
:10016000222319F03217C9F3FACF332331F4DA011D
:100170001D921C928827992708951197AF93BF93DA
:10018000FB013D912191321771F4332321F488272B
:100190009927119702C01E921196FA01A193B0837C
:1001A0009F918F910895222369F7EACF7AE0979F74
:1001B000902D879F802D910D11240895FC011282AE
:1001C000118280E287831086E55BFF4F80E4819394
:1001D0008FE38083EC54F0401286108214821382E5
:1001E0001682158281E081870895CF93DF93EC0119
:1001F00018821616170684F56A30710569F16D309C
:10020000710521F06115710539F110C08A85FE0173
:10021000E80FF11D13861A861E821D8281E08987F0
:100220008883CE010B969C838B8316C08A85FE0142
:10023000E80FF11D63878F5F8A87C45BDF4F98816A
:10024000CC54D040891740F01A8618821C821B8239
:100250001E821D8281E089878881813029F4E981AD
:10026000FA81309709F009958881DF91CF9108953F
:10027000CF93DF93EC0188818823F9F0813019F066
:1002800020E030E005C09E01255F3F4F82E088837B
:100290008985882359F0AE014B5F5F4FBE01695FCE
:1002A0007F4FC9010E94A4009C838B838B819C811A
:1002B000892B19F0198681E001C080E0DF91CF9190
:1002C00008950E9438010895CF93DF93EC010E94B6
:1002D0003801882319F420E030E007C081E08987E5
:1002E0008B819C810E9486009C01C901DF91CF9186
:1002F00008951F920F920FB60F9211242F933F93E0
:100300004F935F936F937F938F939F93AF93BF931D
:10031000EF93FF9380E28093800010926F00109221
:1003200032017894E0913301F0913401309709F073
:100330000995FF91EF91BF91AF919F918F917F911F
:100340006F915F914F913F912F910F900FBE0F9042
:100350001F901895E5E3F1E0108211821282339626
:1003600081E0ED34F807C1F70895809132018823C8
:1003700011F081E0089580E28093800080914E0129
:10038000882319F010924E0102C02D9A2D98E5E3B2
:10039000F1E080818EBD0DB407FEFDCF81818EBD61
:1003A0000DB407FEFDCF828133968EBD0DB407FEDE
:1003B000FDCF81E0ED34F80761F791E090933201D1
:1003C00080EA80938000B09A90936F0080E0089557
:1003D000CF93DF93EC01219A229A539A2A9A239A77
:1003E000259A229A2D9881E08DBD80E58CBDCB01A8
:1003F00024E0969587952A95E1F7262F2295207F70
:10040000272BE5E3F1E0808321836283339691E03B
:10041000ED34F907C1F7CE010E94B50180E2809367
:10042000800010926F0010923201299A29988093CF
:10043000800080E18093810081E090E090938900CA
:100440008093880082E090E090938B0080938A00F4
:1004500080E090E2909387008093860083E280930F
:10046000B00088E08093B1001092B40083E08093E4
:10047000B3008091B10081608093B10080918100D0
:10048000816080938100CE010E94B501DF91CF9100
:1004900008959FE0961B83E0989FF0011124F69544
:1004A000E795EB5CFE4F90FF06C08081807F852B37
:1004B000808341830895CA0134E0969587953A95E3
:1004C000E1F7808381818F70942F9295907F892BA3
:1004D000818308958FE491E00E94DE0008952F92B9
:1004E0003F924F925F926F927F928F929F92AF92C4
:1004F000BF92CF92DF92EF92FF920F931F93DF9301
:10050000CF93CDB7DEB7A2970FB6F894DEBF0FBE7C
:10051000CDBF8DE491E00E94AA015FEF252E5FE040
:10052000352E412C512C56C08EEB91E00E941D05BA
:10053000BC018FE491E00E94F500882309F44AC0D1
:100540004CE9842E41E0942E662477243CC08FE44D
:1005500091E00E9464019C01D4018D939C93B4E0CE
:100560006B1671044CF5875F9140439720F4F401BA
:100570001182108221C0B901882777FD8095982FBC
:100580005F924F923F922F92AA24BB2465013FEFC6
:10059000E32E33E0F32E012D112D20E030E040E07A
:1005A00050E00E94C60860507840D4016D937C935F
:1005B0000F900F900F900F900894611C711CE2E057
:1005C000F0E08E0E9F1E8FE491E00E94610188236F
:1005D00009F0BDCF8EEB91E00E942005882309F041
:1005E000A3CFCE0101969AA389A388E1A9A1BAA1BC
:1005F0001D928A95E9F7E0909E01F0909F01A090EE
:10060000A001B090A1016090A2017090A30160913F
:100610009C0170919D01882777FD8095982F0E94FD
:10062000130A20E030E040E05AE30E94C70A6D8FD1
:100630007E8F8F8F98A36093AE017093AF018093EC
:10064000B0019093B1010027F7FC0095102FC8016D
:10065000B7010E94130A20E030E040E05AE30E9414
:10066000C70A1B012C016093B2017093B301809300
:10067000B4019093B501CC24B7FCC094DC2CC60126
:10068000B5010E94130A20E030E040E05AE30E94E6
:10069000C70A4B015C016093B6017093B701809368
:1006A000B8019093B901FE013196FA8FE98FFC8F62
:1006B000EB8FCC24DD24F601ED5EFE4F608171816D
:1006C000882777FD8095982F0E94130A9B01AC0123
:1006D0006D8D7E8D8F8D98A10E94C70A7B018C0144
:1006E000F601E55EFE4F60817181882777FD809578
:1006F000982F0E94130A9B01AC01C201B1010E9414
:10070000C70A9B01AC01C801B7010E9410097B0117
:100710008C01F601ED5DFE4F60817181882777FDC8
:100720008095982F0E94130A9B01AC01C501B4016A
:100730000E94C70A9B01AC01C801B7010E941009C1
:100740007B018C0120E030E040E85FE30E94C30AB7
:1007500018161CF0C801B70104C060E070E080E822
:100760009FE320E030EF4FE755E40E94C70AAB8DCE
:10077000BC8D6D937D938D939D93BC8FAB8FE2E089
:10078000F0E0CE0EDF1EF8E0CF16D10409F093CFD3
:10079000E092BA01F092BB010093BC011093BD013D
:1007A000660C771CB301882777FD8095982F0E94EF
:1007B000130A698B7A8B8B8B9C8B6D8B7E8B8F8BCB
:1007C000988F5E010894A11CB11CCC24DD24D0922A
:1007D000AD01C092AC01D501ED90FD900D911C9141
:1007E00020E030EF4FE755ECC801B7010E947409D3
:1007F00088235CF40F2EF0E0EF2EF0EFFF2EFFE7E2
:100800000F2FF5EC1F2FF02D14C020E030EF4FE735
:1008100055E4C801B7010E94C30A181654F40F2EFC
:10082000F0E0EF2EF0EFFF2EFFE70F2FF5E41F2F84
:10083000F02DF501E082F1820283138320E030E0A5
:1008400040E050E0C801B7010E94740988239CF47D
:1008500040E050E06C2D8DE491E00E944902C80117
:10086000B70190580E94E509DC01CB016091AC0111
:100870006F5FAC0110C0C801B7010E94E509AB0170
:10088000BC016C2D8DE491E00E9449026091AC01A5
:100890006F5F40E050E08DE491E00E94490282E009
:1008A00090E0C80ED91EA4E0B0E0AA0EBB1EBCE0CA
:1008B000CB16D10409F08BCF94EAC92E91E0D92E42
:1008C0008BE0E82E81E0F82E8601F801808191818D
:1008D000019721F460E0D7018C9103C061E0F7013A
:1008E00080810E94CD070E5F1F4F82E090E0E80EEE
:1008F000F91E91E00C3A190741F700E010E0B80149
:100900008EEB91E00E941A0660E071E08EEB91E0C0
:100910000E942805A98DBA8D4D915D916D917D91B3
:10092000BA8FA98F8EEB91E00E94A70660E071E07C
:100930008EEB91E00E9428050F5F1F4F06301105D6
:10094000F1F662E071E08EEB91E00E94280504E090
:1009500010E0B8018EEB91E00E941A0660E071E0B1
:100960008EEB91E00E942805F601619171916F0173
:100970008EEB91E00E941A0660E071E08EEB91E050
:100980000E9428050F5F1F4F0830110511F78EEBED
:1009900091E00E9440058DE491E00E94B501A2968D
:1009A0000FB6F894DEBF0FBECDBFCF91DF911F9180
:1009B0000F91FF90EF90DF90CF90BF90AF909F90FE
:1009C0008F907F906F905F904F903F902F90089501
:1009D00040E855E260E070E08EEB91E00E94230574
:1009E00060E070E08DE491E00E94E80161E08091B8
:1009F0000B010E94AF0761E080910D010E94AF07DB
:100A000061E080910F010E94AF0761E080911101C8
:100A10000E94AF0708950E9475070E94E8040E9493
:100A20006F02FDCF8FE291E09093BF018093BE01F2
:100A30000895862F0E94510808950E946A0808951B
:100A40000E9459080895CB01BA010E941808089520
:100A50000F931F93CF93DF938C01EB0109C0219675
:100A6000D801ED91FC910190F081E02DC80109952C
:100A700068816623A1F7DF91CF911F910F910895AF
:100A80000F931F938C01DC01ED91FC910190F0819B
:100A9000E02D6DE00995D801ED91FC910190F08178
:100AA000E02D6AE0C80109951F910F9108952F92DA
:100AB0003F924F925F926F927F928F929F92AF92EE
:100AC000BF92CF92DF92EF92FF920F931F93DF932B
:100AD000CF93CDB7DEB7A0970FB6F894DEBF0FBEA9
:100AE000CDBF1C016A017B014115510561057105EE
:100AF00049F4DC01ED91FC910190F081E02D60E37F
:100B0000099554C0882499245401422E5524662402
:100B1000772401E010E00C0F1D1F080D191DC701FF
:100B2000B601A30192010E945C0BF8016083089456
:100B3000811C911CA11CB11CC701B601A30192012B
:100B40000E945C0BC901DA016C017D01C114D10462
:100B5000E104F104F1F681E0E82EF12CEC0EFD1E2B
:100B6000E80CF91C3E010894611C711CD501C401FC
:100B70000197A109B1096C01C818D90814C0F60180
:100B8000EE0DFF1D60816A3010F4605D01C0695C8C
:100B9000D101ED91FC910190F081E02DC101099509
:100BA0000894E108F1086E147F0449F7A0960FB687
:100BB000F894DEBF0FBECDBFCF91DF911F910F9193
:100BC000FF90EF90DF90CF90BF90AF909F908F906D
:100BD0007F906F905F904F903F902F9008952AE004
:100BE0000E9457050895EF92FF920F931F93CF93A2
:100BF000DF93EC017A018B0177FF0FC0E881F98167
:100C00000190F081E02D6DE2099510950095F0942A
:100C1000E094E11CF11C011D111D2AE0B801A7019F
:100C2000CE010E945705DF91CF911F910F91FF9048
:100C3000EF900895AB01662757FD6095762F0E94CF
:100C4000F30508959F92AF92BF92CF92DF92EF92F9
:100C5000FF920F931F93CF93DF93EC017A018B01E7
:100C6000922E20E030E040E050E0C801B7010E9441
:100C70007409882364F4E881F9810190F081E02D02
:100C80006DE2CE01099517FB109517F9109560E0FC
:100C900070E080E09FE3AA2407C020E030E040E25B
:100CA00051E40E947809A394A914B8F39B01AC0104
:100CB000C801B7010E9410095B016C010E94E5099F
:100CC0007B018C01AB01BC01CE010E94EF05992094
:100CD00029F069E071E0CE010E942805C801B70142
:100CE0000E94110A9B01AC01C601B5010E940F09C7
:100CF00020C020E030E040E251E40E94C70A7B01BE
:100D00008C010E94E0095B016C01CC24B7FCC0940B
:100D1000DC2CB601A501CE010E94F305C601B50188
:100D20000E94130A9B01AC01C801B7010E940F0980
:100D30009A949920F1F6DF91CF911F910F91FF9036
:100D4000EF90DF90CF90BF90AF909F90089522E0FA
:100D50000E94220608951F920F920FB60F9211243F
:100D60002F933F934F935F936F937F938F939F93B3
:100D7000AF93BF93EF93FF938091C0019091C10116
:100D8000892B29F0E091C001F091C1010995FF91F3
:100D9000EF91BF91AF919F918F917F916F915F91F3
:100DA0004F913F912F910F900FBE0F901F9018956C
:100DB0001F920F920FB60F9211242F933F934F93D0
:100DC0005F936F937F938F939F93AF93BF93EF93B3
:100DD000FF938091C2019091C301892B29F0E0918A
:100DE000C201F091C3010995FF91EF91BF91AF91BD
:100DF0009F918F917F916F915F914F913F912F9133
:100E00000F900FBE0F901F9018951F920F920FB664
:100E10000F9211242F938F939F93AF93BF93809141
:100E2000C4019091C501A091C601B091C70101967E
:100E3000A11DB11D8093C4019093C501A093C6016B
:100E4000B093C7018091C8019091C901A091CA01D6
:100E5000B091CB018050904CAF4FBF4F8093C801F1
:100E60009093C901A093CA01B093CB0127C0809190
:100E7000C8019091C901A091CA01B091CB018058DD
:100E80009E43A040B0408093C8019093C901A093B5
:100E9000CA01B093CB018091CC019091CD01A0917A
:100EA000CE01B091CF010196A11DB11D8093CC015F
:100EB0009093CD01A093CE01B093CF018091C80152
:100EC0009091C901A091CA01B091CB0181589E4374
:100ED000A040B04060F6BF91AF919F918F912F914C
:100EE0000F900FBE0F901F901895789484B5826074
:100EF00084BD84B5816084BD85B5826085BD85B5BE
:100F0000816085BDEEE6F0E0808181608083E1E86C
:100F1000F0E0808182608083808181608083E0E86E
:100F2000F0E0808181608083E1EBF0E0808184608B
:100F30008083E0EBF0E0808181608083EAE7F0E08D
:100F400080818460808380818260808380818160F1
:100F500080838081806880831092C1000895282F4B
:100F600030E0C90185579F4FFC01949129583F4FAC
:100F7000F9018491882381F0E82FF0E0E859FF4FD0
:100F8000E491F0E0662329F48081909589238083A1
:100F900008958081892B80830895482F50E0CA01ED
:100FA00081569F4FFC012491CA0185579F4FFC0138
:100FB000949149585F4FFA0134913323C1F12223B0
:100FC00031F1233021F4809180008F7705C02430E7
:100FD00031F4809180008F7D8093800018C0213093
:100FE00019F484B58F7704C0223021F484B58F7D45
:100FF00084BD0DC0263021F48091B0008F7705C0EC
:10100000273029F48091B0008F7D8093B000E32FCA
:10101000F0E0E359FF4FE491F0E0662329F480818A
:1010200090958923808308958081892B80830895FA
:10103000EF92FF920F931F937B018C0122E030E02F
:1010400040E050E00E947E0B205C3D4B404F5F4FE4
:10105000CA01B901A80197010E947E0BC901DA01FA
:101060000197A109B109292F3A2F4B2F552747FD89
:101070005A950196A11DB11D2093C5008150809302
:10108000C400E1ECF0E08081806180838081886031
:1010900080838081806880831F910F91FF90EF9003
:1010A0000895982F8091C00085FFFCCF9093C600D3
:1010B00008958091D0019091D10180589F4F209147
:1010C000D2013091D301821B930B60E870E00E9443
:1010D000490B08954091D2015091D3018091D001E4
:1010E0009091D1018417950719F42FEF3FEF0FC0AE
:1010F000FA01EC52FE4F2081CA01019660E870E0CF
:101100000E94490B9093D3018093D20130E0C90132
:1011100008951F920F920FB60F9211242F933F93B1
:101120004F935F936F937F938F939F93AF93BF93EF
:10113000EF93FF934091C600E091D001F091D1016F
:10114000CF01019660E870E00E94490B9C018091FC
:10115000D2019091D3012817390739F0EC52FE4F94
:1011600040833093D1012093D001FF91EF91BF9143
:10117000AF919F918F917F916F915F914F913F912F
:101180002F910F900FBE0F901F9018952F923F92A6
:101190004F925F926F927F928F929F92AF92BF9287
:1011A000CF92DF92EF92FF920F931F93DF93CF9333
:1011B000CDB7DEB73B014C0119012A016D897E894B
:1011C0008F89988D6A197B098C099D09621A730AA7
:1011D000840A950AA40193010E942A0BE218F308DD
:1011E00004091509A80197010E947E0B2A0D3B1DD9
:1011F0004C1D5D1DB901CA01CF91DF911F910F9167
:10120000FF90EF90DF90CF90BF90AF909F908F9026
:101210007F906F905F904F903F902F90089550581F
:10122000BB27AA270ED075C166D130F06BD120F054
:1012300031F49F3F11F41EF45BC10EF4E095E7FB1F
:1012400051C1E92F77D180F3BA176207730784077A
:10125000950718F071F49EF58FC10EF4E0950B2EF2
:10126000BA2FA02D0B01B90190010C01CA01A001F8
:101270001124FF27591B99F0593F50F4503E68F153
:101280001A16F040A22F232F342F4427585FF3CF94
:10129000469537952795A795F0405395C9F77EF465
:1012A0001F16BA0B620B730B840BBAF09150A1F0AE
:1012B000FF0FBB1F661F771F881FC2F70EC0BA0F34
:1012C000621F731F841F48F4879577956795B795BC
:1012D000F7959E3F08F0B3CF9395880F08F09927B4
:1012E000EE0F979587950895D9D008F481E0089579
:1012F0000CD00FC107D140F0FED030F021F45F3F99
:1013000019F0F0C0511139C1F3C014D198F39923E9
:10131000C9F35523B1F3951B550BBB27AA276217B9
:101320007307840738F09F5F5F4F220F331F441FFE
:10133000AA1FA9F333D00E2E3AF0E0E830D0915036
:101340005040E695001CCAF729D0FE2F27D0660F23
:10135000771F881FBB1F261737074807AB07B0E862
:1013600009F0BB0B802DBF01FF2793585F4F2AF078
:101370009E3F510568F0B6C000C15F3FECF3983E58
:10138000DCF3869577956795B795F7959F5FC9F7D5
:10139000880F911D9695879597F90895E1E0660F5E
:1013A000771F881FBB1F621773078407BA0720F0D7
:1013B000621B730B840BBA0BEE1F88F7E095089540
:1013C00004D06894B111D9C00895BCD088F09F575B
:1013D00090F0B92F9927B751A0F0D1F0660F771F81
:1013E000881F991F1AF0BA95C9F712C0B13081F061
:1013F000C3D0B1E00895C0C0672F782F8827B85FA9
:1014000039F0B93FCCF3869577956795B395D9F7C1
:101410003EF490958095709561957F4F8F4F9F4FCB
:101420000895E89409C097FB3EF4909580957095D7
:1014300061957F4F8F4F9F4F9923A9F0F92F96E920
:10144000BB279395F695879577956795B795F11195
:10145000F8CFFAF4BB0F11F460FF1BC06F5F7F4F32
:101460008F4F9F4F16C0882311F096E911C0772344
:1014700021F09EE8872F762F05C0662371F096E84D
:10148000862F70E060E02AF09A95660F771F881F1C
:10149000DAF7880F9695879597F90895990F0008C0
:1014A000550FAA0BE0E8FEEF16161706E807F90736
:1014B000C0F012161306E407F50798F0621B730BD1
:1014C000840B950B39F40A2661F0232B242B252B52
:1014D00021F408950A2609F4A140A6958FEF811DF5
:1014E000811D089597F99F6780E870E060E0089596
:1014F0009FEF80EC089500240A941616170618062C
:101500000906089500240A94121613061406050607
:101510000895092E0394000C11F4882352F0BB0F98
:1015200040F4BF2B11F460FF04C06F5F7F4F8F4FFB
:101530009F4F089557FD9058440F551F59F05F3F36
:1015400071F04795880F97FB991F61F09F3F79F0E5
:1015500087950895121613061406551FF2CF469567
:10156000F1DF08C0161617061806991FF1CF8695E9
:101570007105610508940895E894BB2766277727CD
:10158000CB0197F908958ADF08F48FEF08950BD007
:10159000C0CFB1DF28F0B6DF18F0952309F0A2CF55
:1015A000A7CF1124EACFC6DFA0F3959FD1F3950F03
:1015B00050E0551F629FF001729FBB27F00DB11DD7
:1015C000639FAA27F00DB11DAA1F649F6627B00D67
:1015D000A11D661F829F2227B00DA11D621F739F50
:1015E000B00DA11D621F839FA00D611D221F749F5E
:1015F0003327A00D611D231F849F600D211D822FA5
:10160000762F6A2F11249F5750408AF0E1F08823EB
:101610004AF0EE0FFF1FBB1F661F771F881F9150F8
:101620005040A9F79E3F510570F05CCFA6CF5F3FB9
:10163000ECF3983EDCF3869577956795B795F7952B
:10164000E7959F5FC1F7FE2B880F911D96958795B3
:1016500097F90895629FD001739FF001829FE00D7A
:10166000F11D649FE00DF11D929FF00D839FF00D21
:10167000749FF00D659FF00D9927729FB00DE11DCD
:10168000F91F639FB00DE11DF91FBD01CF011124AA
:10169000089597FB092E07260AD077FD04D049D07C
:1016A00006D000201AF4709561957F4F0895F6F7E3
:1016B000909581959F4F0895A1E21A2EAA1BBB1BFE
:1016C000FD010DC0AA1FBB1FEE1FFF1FA217B3070E
:1016D000E407F50720F0A21BB30BE40BF50B661F24
:1016E000771F881F991F1A9469F7609570958095E8
:1016F00090959B01AC01BD01CF01089597FB092E88
:1017000005260ED057FD04D0D7DF0AD0001C38F4D0
:1017100050954095309521953F4F4F4F5F4F08951D
:10172000F6F790958095709561957F4F8F4F9F4FFD
:101730000895AA1BBB1B51E107C0AA1FBB1FA61718
:10174000B70710F0A61BB70B881F991F5A95A9F76A
:1017500080959095BC01CD010895EE0FFF1F059077
:0A176000F491E02D0994F894FFCFF6
:10176A002000202020202020002E00020004000754
:10177A00000800FFFF01000100FFFFFFFFFFFF015C
:10178A00000100FFFF0100FFFF0100000000001937
:02179A00050048
:00000001FF
