:100000000C945B000C94EA010C9417020C9483008E
:100010000C9483000C9483000C9483000C94830054
:100020000C9483000C9483000C9483000C94830044
:100030000C9483000C9483000C9483000C94830034
:100040000C9444020C9483000C94B7030C9483002A
:100050000C9483000C9483000C9483000C94830014
:100060000C9483000C948300000024272A000025B0
:10007000282B000023262904040404040404040299
:100080000202020202030303030303010204081035
:100090002040800102040810200102040810200002
:1000A0000000070002010000030406000000000039
:1000B00000000000E40011241FBECFEFD4E0DEBF3B
:1000C000CDBF11E0A0E0B1E0E0ECF8E002C00590A7
:1000D0000D92AA31B107D9F711E0AAE1B1E001C050
:1000E0001D92A23BB107E1F710E0C6EBD0E004C0DF
:1000F0002297FE010E945A04C43BD107C9F70E940F
:10010000DD000C945E040C940000CF93DF93C2E0FA
:10011000D1E088810E94EE0290931B0180931A0126
:10012000BC018CE191E00E94E20160E071E08CE1B1
:1001300091E00E94F400229681E0CA30D80749F786
:10014000CAE0D1E088810E942A0390931B0180932A
:100150001A01BC018CE191E00E94E20160E071E0D3
:100160008CE191E00E94F400229681E0C231D80730
:1001700049F78CE191E00E940C01DF91CF91089545
:1001800040E855E260E070E08CE191E00E94EF0011
:1001900060E080910A010E940C0360E080910C01F4
:1001A0000E940C0360E080910E010E940C0360E04D
:1001B000809110010E940C0308950E94B4020E94D5
:1001C000C0000E948500FDCF87E191E090931D0162
:1001D00080931C010895862F0E94AF030895CB01E0
:1001E000BA010E94760308950F931F93CF93DF9374
:1001F0008C01EB0109C02196D801ED91FC91019091
:10020000F081E02DC801099568816623A1F7DF918F
:10021000CF911F910F9108950F931F938C01DC01D3
:10022000ED91FC910190F081E02D6DE00995D801F0
:10023000ED91FC910190F081E02D6AE0C8010995F3
:100240001F910F9108952F923F924F925F926F925C
:100250007F928F929F92AF92BF92CF92DF92EF9256
:10026000FF920F931F93DF93CF93CDB7DEB7A09785
:100270000FB6F894DEBF0FBECDBF1C016A017B0133
:10028000411551056105710549F4DC01ED91FC91C1
:100290000190F081E02D60E3099554C088249924F1
:1002A0005401422E55246624772401E010E00C0FFF
:1002B0001D1F080D191DC701B601A30192010E945F
:1002C0000704F80160830894811C911CA11CB11CD7
:1002D000C701B601A30192010E940704C901DA0116
:1002E0006C017D01C114D104E104F104F1F681E057
:1002F000E82EF12CEC0EFD1EE80CF91C3E010894D2
:10030000611C711CD501C4010197A109B1096C01DF
:10031000C818D90814C0F601EE0DFF1D60816A30BF
:1003200010F4605D01C0695CD101ED91FC91019018
:10033000F081E02DC10109950894E108F1086E14DF
:100340007F0449F7A0960FB6F894DEBF0FBECDBF6D
:10035000CF91DF911F910F91FF90EF90DF90CF90A1
:10036000BF90AF909F908F907F906F905F904F90D5
:100370003F902F900895EF92FF920F931F93CF938A
:10038000DF93EC017A018B0177FF0FC0E881F981DF
:100390000190F081E02D6DE2099510950095F094A3
:1003A000E094E11CF11C011D111D2AE0B801A70118
:1003B000CE010E942301DF91CF911F910F91FF90F9
:1003C000EF900895AB01662757FD6095762F0E9448
:1003D000BB0108951F920F920FB60F9211242F9315
:1003E0003F934F935F936F937F938F939F93AF93BD
:1003F000BF93EF93FF9380911E0190911F01892B72
:1004000029F0E0911E01F0911F010995FF91EF91F4
:10041000BF91AF919F918F917F916F915F914F911C
:100420003F912F910F900FBE0F901F9018951F9224
:100430000F920FB60F9211242F933F934F935F9318
:100440006F937F938F939F93AF93BF93EF93FF939C
:100450008091200190912101892B29F0E0912001C8
:10046000F09121010995FF91EF91BF91AF919F917B
:100470008F917F916F915F914F913F912F910F904D
:100480000FBE0F901F9018951F920F920FB60F92EC
:1004900011242F938F939F93AF93BF938091220149
:1004A00090912301A0912401B09125010196A11DF5
:1004B000B11D8093220190932301A0932401B09356
:1004C00025018091260190912701A0912801B091EA
:1004D00029018050904CAF4FBF4F809326019093DD
:1004E0002701A0932801B093290127C080912601FC
:1004F00090912701A0912801B091290180589E4335
:10050000A040B0408093260190932701A09328013A
:10051000B093290180912A0190912B01A0912C0187
:10052000B0912D010196A11DB11D80932A019093D8
:100530002B01A0932C01B0932D0180912601909165
:100540002701A0912801B091290181589E43A04024
:10055000B04060F6BF91AF919F918F912F910F9016
:100560000FBE0F901F901895789484B5826084BD5B
:1005700084B5816084BD85B5826085BD85B58160A7
:1005800085BDEEE6F0E0808181608083E1E8F0E007
:10059000808182608083808181608083E0E8F0E0F8
:1005A000808181608083E1EBF0E0808184608083E2
:1005B000E0EBF0E0808181608083EAE7F0E0808119
:1005C0008460808380818260808380818160808379
:1005D0008081806880831092C10008958F7090910F
:1005E00012019295990F990F907C982B90937C0013
:1005F00080917A00806480937A0080917A0086FDF1
:10060000FCCF2091780040917900942F80E030E079
:10061000282B392BC9010895282F30E0C9018557AF
:100620009F4FFC01949129583F4FF90184918823F1
:1006300081F0E82FF0E0E859FF4FE491F0E0662305
:1006400029F4808190958923808308958081892B66
:1006500080830895482F50E0CA0181569F4FFC01C6
:100660002491CA0185579F4FFC01949149585F4FCF
:10067000FA013491332319F420E030E035C022230D
:1006800031F1233021F4809180008F7705C0243030
:1006900031F4809180008F7D8093800018C02130DC
:1006A00019F484B58F7704C0223021F484B58F7D8E
:1006B00084BD0DC0263021F48091B0008F7705C035
:1006C000273029F48091B0008F7D8093B000E32F14
:1006D000F0E0EE58FF4FE491F0E0808120E030E060
:1006E000892311F021E030E0C9010895EF92FF92D3
:1006F0000F931F937B018C0122E030E040E050E03B
:100700000E942904205C3D4B404F5F4FCA01B90154
:10071000A80197010E942904C901DA010197A109E2
:10072000B109292F3A2F4B2F552747FD5A9501968E
:10073000A11DB11D2093C50081508093C400E1EC40
:10074000F0E0808180618083808188608083808107
:10075000806880831F910F91FF90EF900895982FEC
:100760008091C00085FFFCCF9093C60008951F9232
:100770000F920FB60F9211242F933F934F935F93D5
:100780006F937F938F939F93AF93BF93EF93FF9359
:100790004091C600E0912E01F0912F01CF0101960A
:1007A00060E870E00E94F4039C0180913001909118
:1007B00031012817390739F0EE5CFE4F4083309342
:1007C0002F0120932E01FF91EF91BF91AF919F9147
:1007D0008F917F916F915F914F913F912F910F90EA
:1007E0000FBE0F901F90189597FB092E07260AD071
:1007F00077FD04D049D006D000201AF47095619599
:100800007F4F0895F6F7909581959F4F0895A1E247
:100810001A2EAA1BBB1BFD010DC0AA1FBB1FEE1F7A
:10082000FF1FA217B307E407F50720F0A21BB30BC5
:10083000E40BF50B661F771F881F991F1A9469F741
:1008400060957095809590959B01AC01BD01CF019D
:10085000089597FB092E05260ED057FD04D0D7DF4B
:100860000AD0001C38F450954095309521953F4FA3
:100870004F4F5F4F0895F6F790958095709561956D
:100880007F4F8F4F9F4F0895AA1BBB1B51E107C09D
:10089000AA1FBB1FA617B70710F0A61BB70B881F10
:1008A000991F5A95A9F780959095BC01CD0108959F
:1008B000EE0FFF1F0590F491E02D0994F894FFCFFF
:1008C00020000000010002000300020003000400F9
:0A08D00005000100000000EB00002D
:00000001FF
